{
  "contractName": "Storage",
  "abi": [
    {
      "anonymous": false,
      "inputs": [
        {
          "indexed": false,
          "internalType": "uint256",
          "name": "fileId",
          "type": "uint256"
        },
        {
          "indexed": false,
          "internalType": "string",
          "name": "fileName",
          "type": "string"
        }
      ],
      "name": "FileRenamed",
      "type": "event"
    },
    {
      "anonymous": false,
      "inputs": [
        {
          "indexed": false,
          "internalType": "uint256",
          "name": "fileId",
          "type": "uint256"
        },
        {
          "indexed": false,
          "internalType": "address",
          "name": "sharedWith",
          "type": "address"
        }
      ],
      "name": "FileShared",
      "type": "event"
    },
    {
      "anonymous": false,
      "inputs": [
        {
          "indexed": false,
          "internalType": "uint256",
          "name": "fileId",
          "type": "uint256"
        },
        {
          "indexed": false,
          "internalType": "string",
          "name": "fileHash",
          "type": "string"
        },
        {
          "indexed": false,
          "internalType": "string",
          "name": "fileType",
          "type": "string"
        },
        {
          "indexed": false,
          "internalType": "string",
          "name": "fileName",
          "type": "string"
        },
        {
          "indexed": false,
          "internalType": "string",
          "name": "fileDescription",
          "type": "string"
        },
        {
          "indexed": false,
          "internalType": "uint256",
          "name": "fileSize",
          "type": "uint256"
        },
        {
          "indexed": false,
          "internalType": "uint256",
          "name": "uploadTime",
          "type": "uint256"
        },
        {
          "indexed": false,
          "internalType": "address payable",
          "name": "uploader",
          "type": "address"
        }
      ],
      "name": "FileUploaded",
      "type": "event"
    },
    {
      "inputs": [],
      "name": "fileCount",
      "outputs": [
        {
          "internalType": "uint256",
          "name": "",
          "type": "uint256"
        }
      ],
      "stateMutability": "view",
      "type": "function",
      "constant": true
    },
    {
      "inputs": [
        {
          "internalType": "uint256",
          "name": "",
          "type": "uint256"
        }
      ],
      "name": "files",
      "outputs": [
        {
          "internalType": "uint256",
          "name": "fileId",
          "type": "uint256"
        },
        {
          "internalType": "string",
          "name": "fileHash",
          "type": "string"
        },
        {
          "internalType": "string",
          "name": "fileType",
          "type": "string"
        },
        {
          "internalType": "string",
          "name": "fileName",
          "type": "string"
        },
        {
          "internalType": "string",
          "name": "fileDescription",
          "type": "string"
        },
        {
          "internalType": "uint256",
          "name": "fileSize",
          "type": "uint256"
        },
        {
          "internalType": "uint256",
          "name": "uploadTime",
          "type": "uint256"
        },
        {
          "internalType": "address payable",
          "name": "uploader",
          "type": "address"
        }
      ],
      "stateMutability": "view",
      "type": "function",
      "constant": true
    },
    {
      "inputs": [],
      "name": "name",
      "outputs": [
        {
          "internalType": "string",
          "name": "",
          "type": "string"
        }
      ],
      "stateMutability": "view",
      "type": "function",
      "constant": true
    },
    {
      "inputs": [
        {
          "internalType": "string",
          "name": "_fileHash",
          "type": "string"
        },
        {
          "internalType": "uint256",
          "name": "_fileSize",
          "type": "uint256"
        },
        {
          "internalType": "string",
          "name": "_fileType",
          "type": "string"
        },
        {
          "internalType": "string",
          "name": "_fileName",
          "type": "string"
        },
        {
          "internalType": "string",
          "name": "_fileDescription",
          "type": "string"
        }
      ],
      "name": "uploadFile",
      "outputs": [],
      "stateMutability": "nonpayable",
      "type": "function"
    },
    {
      "inputs": [
        {
          "internalType": "uint256",
          "name": "_fileId",
          "type": "uint256"
        },
        {
          "internalType": "string",
          "name": "_fileName",
          "type": "string"
        }
      ],
      "name": "renameFile",
      "outputs": [],
      "stateMutability": "nonpayable",
      "type": "function"
    },
    {
      "inputs": [
        {
          "internalType": "uint256",
          "name": "_fileId",
          "type": "uint256"
        },
        {
          "internalType": "address",
          "name": "_user",
          "type": "address"
        }
      ],
      "name": "addSharedUser",
      "outputs": [],
      "stateMutability": "nonpayable",
      "type": "function"
    },
    {
      "inputs": [
        {
          "internalType": "uint256",
          "name": "fileIndex",
          "type": "uint256"
        }
      ],
      "name": "getSharedUsers",
      "outputs": [
        {
          "internalType": "address[]",
          "name": "",
          "type": "address[]"
        }
      ],
      "stateMutability": "view",
      "type": "function",
      "constant": true
    }
  ],
  "bytecode": "0x60806040526040518060400160405280600781526020017f53746f726167650000000000000000000000000000000000000000000000000081525060009080519060200190620000519291906200006b565b5060006001553480156200006457600080fd5b5062000180565b82805462000079906200014a565b90600052602060002090601f0160209004810192826200009d5760008555620000e9565b82601f10620000b857805160ff1916838001178555620000e9565b82800160010185558215620000e9579182015b82811115620000e8578251825591602001919060010190620000cb565b5b509050620000f89190620000fc565b5090565b5b8082111562000117576000816000905550600101620000fd565b5090565b7f4e487b7100000000000000000000000000000000000000000000000000000000600052602260045260246000fd5b600060028204905060018216806200016357607f821691505b602082108114156200017a57620001796200011b565b5b50919050565b61137f80620001906000396000f3fe608060405234801561001057600080fd5b506004361061007d5760003560e01c8063b3d199fe1161005b578063b3d199fe146100da578063c32c7c131461010a578063e82d9d3314610126578063f4c714b4146101425761007d565b806306fdde031461008257806343953519146100a0578063939d9d20146100be575b600080fd5b61008a610179565b6040516100979190610c61565b60405180910390f35b6100a8610207565b6040516100b59190610c9c565b60405180910390f35b6100d860048036038101906100d39190610d55565b61020d565b005b6100f460048036038101906100ef9190610d95565b610385565b6040516101019190610e80565b60405180910390f35b610124600480360381019061011f9190610fd7565b610429565b005b610140600480360381019061013b9190611033565b610529565b005b61015c60048036038101906101579190610d95565b610813565b60405161017098979695949392919061113f565b60405180910390f35b6000805461018690611208565b80601f01602080910402602001604051908101604052809291908181526020018280546101b290611208565b80156101ff5780601f106101d4576101008083540402835291602001916101ff565b820191906000526020600020905b8154815290600101906020018083116101e257829003601f168201915b505050505081565b60015481565b6000821161021a57600080fd5b60015482111561022957600080fd5b600073ffffffffffffffffffffffffffffffffffffffff168173ffffffffffffffffffffffffffffffffffffffff16141561026357600080fd5b6002600083815260200190815260200160002060070160009054906101000a900473ffffffffffffffffffffffffffffffffffffffff1673ffffffffffffffffffffffffffffffffffffffff163373ffffffffffffffffffffffffffffffffffffffff16146102d157600080fd5b60026000838152602001908152602001600020600801819080600181540180825580915050600190039060005260206000200160009091909190916101000a81548173ffffffffffffffffffffffffffffffffffffffff021916908373ffffffffffffffffffffffffffffffffffffffff1602179055507ff51e38688e875698cd26d3e2713aa3404bcf703a5675f744251918da98a2f18e8282604051610379929190611249565b60405180910390a15050565b60606002600083815260200190815260200160002060080180548060200260200160405190810160405280929190818152602001828054801561041d57602002820191906000526020600020905b8160009054906101000a900473ffffffffffffffffffffffffffffffffffffffff1673ffffffffffffffffffffffffffffffffffffffff16815260200190600101908083116103d3575b50505050509050919050565b6000821161043657600080fd5b60015482111561044557600080fd5b600081511161045357600080fd5b6002600083815260200190815260200160002060070160009054906101000a900473ffffffffffffffffffffffffffffffffffffffff1673ffffffffffffffffffffffffffffffffffffffff163373ffffffffffffffffffffffffffffffffffffffff16146104c157600080fd5b806002600084815260200190815260200160002060030190805190602001906104eb929190610a9b565b507f3b7408214bc883497ace3d3b5eb38d84e456cb16cc87312b9614fe6807792071828260405161051d929190611272565b60405180910390a15050565b600085511161053757600080fd5b600083511161054557600080fd5b600081511161055357600080fd5b600082511161056157600080fd5b6000841161056e57600080fd5b600073ffffffffffffffffffffffffffffffffffffffff163373ffffffffffffffffffffffffffffffffffffffff1614156105a857600080fd5b600160008154809291906105bb906112d1565b91905055506000600167ffffffffffffffff8111156105dd576105dc610eac565b5b60405190808252806020026020018201604052801561060b5781602001602082028036833780820191505090505b50905033816000815181106106235761062261131a565b5b602002602001019073ffffffffffffffffffffffffffffffffffffffff16908173ffffffffffffffffffffffffffffffffffffffff168152505060405180610120016040528060015481526020018781526020018581526020018481526020018381526020018681526020014281526020013373ffffffffffffffffffffffffffffffffffffffff168152602001828152506002600060015481526020019081526020016000206000820151816000015560208201518160010190805190602001906106f0929190610a9b565b50604082015181600201908051906020019061070d929190610a9b565b50606082015181600301908051906020019061072a929190610a9b565b506080820151816004019080519060200190610747929190610a9b565b5060a0820151816005015560c0820151816006015560e08201518160070160006101000a81548173ffffffffffffffffffffffffffffffffffffffff021916908373ffffffffffffffffffffffffffffffffffffffff1602179055506101008201518160080190805190602001906107c0929190610b21565b509050507f101c765a0a967546b46c531a477cd23e3fdae09ed411f408dda1e71a02054e95600154878686868a423360405161080398979695949392919061113f565b60405180910390a1505050505050565b600260205280600052604060002060009150905080600001549080600101805461083c90611208565b80601f016020809104026020016040519081016040528092919081815260200182805461086890611208565b80156108b55780601f1061088a576101008083540402835291602001916108b5565b820191906000526020600020905b81548152906001019060200180831161089857829003601f168201915b5050505050908060020180546108ca90611208565b80601f01602080910402602001604051908101604052809291908181526020018280546108f690611208565b80156109435780601f1061091857610100808354040283529160200191610943565b820191906000526020600020905b81548152906001019060200180831161092657829003601f168201915b50505050509080600301805461095890611208565b80601f016020809104026020016040519081016040528092919081815260200182805461098490611208565b80156109d15780601f106109a6576101008083540402835291602001916109d1565b820191906000526020600020905b8154815290600101906020018083116109b457829003601f168201915b5050505050908060040180546109e690611208565b80601f0160208091040260200160405190810160405280929190818152602001828054610a1290611208565b8015610a5f5780601f10610a3457610100808354040283529160200191610a5f565b820191906000526020600020905b815481529060010190602001808311610a4257829003601f168201915b5050505050908060050154908060060154908060070160009054906101000a900473ffffffffffffffffffffffffffffffffffffffff16905088565b828054610aa790611208565b90600052602060002090601f016020900481019282610ac95760008555610b10565b82601f10610ae257805160ff1916838001178555610b10565b82800160010185558215610b10579182015b82811115610b0f578251825591602001919060010190610af4565b5b509050610b1d9190610bab565b5090565b828054828255906000526020600020908101928215610b9a579160200282015b82811115610b995782518260006101000a81548173ffffffffffffffffffffffffffffffffffffffff021916908373ffffffffffffffffffffffffffffffffffffffff16021790555091602001919060010190610b41565b5b509050610ba79190610bab565b5090565b5b80821115610bc4576000816000905550600101610bac565b5090565b600081519050919050565b600082825260208201905092915050565b60005b83811015610c02578082015181840152602081019050610be7565b83811115610c11576000848401525b50505050565b6000601f19601f8301169050919050565b6000610c3382610bc8565b610c3d8185610bd3565b9350610c4d818560208601610be4565b610c5681610c17565b840191505092915050565b60006020820190508181036000830152610c7b8184610c28565b905092915050565b6000819050919050565b610c9681610c83565b82525050565b6000602082019050610cb16000830184610c8d565b92915050565b6000604051905090565b600080fd5b600080fd5b610cd481610c83565b8114610cdf57600080fd5b50565b600081359050610cf181610ccb565b92915050565b600073ffffffffffffffffffffffffffffffffffffffff82169050919050565b6000610d2282610cf7565b9050919050565b610d3281610d17565b8114610d3d57600080fd5b50565b600081359050610d4f81610d29565b92915050565b60008060408385031215610d6c57610d6b610cc1565b5b6000610d7a85828601610ce2565b9250506020610d8b85828601610d40565b9150509250929050565b600060208284031215610dab57610daa610cc1565b5b6000610db984828501610ce2565b91505092915050565b600081519050919050565b600082825260208201905092915050565b6000819050602082019050919050565b610df781610d17565b82525050565b6000610e098383610dee565b60208301905092915050565b6000602082019050919050565b6000610e2d82610dc2565b610e378185610dcd565b9350610e4283610dde565b8060005b83811015610e73578151610e5a8882610dfd565b9750610e6583610e15565b925050600181019050610e46565b5085935050505092915050565b60006020820190508181036000830152610e9a8184610e22565b905092915050565b600080fd5b600080fd5b7f4e487b7100000000000000000000000000000000000000000000000000000000600052604160045260246000fd5b610ee482610c17565b810181811067ffffffffffffffff82111715610f0357610f02610eac565b5b80604052505050565b6000610f16610cb7565b9050610f228282610edb565b919050565b600067ffffffffffffffff821115610f4257610f41610eac565b5b610f4b82610c17565b9050602081019050919050565b82818337600083830152505050565b6000610f7a610f7584610f27565b610f0c565b905082815260208101848484011115610f9657610f95610ea7565b5b610fa1848285610f58565b509392505050565b600082601f830112610fbe57610fbd610ea2565b5b8135610fce848260208601610f67565b91505092915050565b60008060408385031215610fee57610fed610cc1565b5b6000610ffc85828601610ce2565b925050602083013567ffffffffffffffff81111561101d5761101c610cc6565b5b61102985828601610fa9565b9150509250929050565b600080600080600060a0868803121561104f5761104e610cc1565b5b600086013567ffffffffffffffff81111561106d5761106c610cc6565b5b61107988828901610fa9565b955050602061108a88828901610ce2565b945050604086013567ffffffffffffffff8111156110ab576110aa610cc6565b5b6110b788828901610fa9565b935050606086013567ffffffffffffffff8111156110d8576110d7610cc6565b5b6110e488828901610fa9565b925050608086013567ffffffffffffffff81111561110557611104610cc6565b5b61111188828901610fa9565b9150509295509295909350565b600061112982610cf7565b9050919050565b6111398161111e565b82525050565b600061010082019050611155600083018b610c8d565b8181036020830152611167818a610c28565b9050818103604083015261117b8189610c28565b9050818103606083015261118f8188610c28565b905081810360808301526111a38187610c28565b90506111b260a0830186610c8d565b6111bf60c0830185610c8d565b6111cc60e0830184611130565b9998505050505050505050565b7f4e487b7100000000000000000000000000000000000000000000000000000000600052602260045260246000fd5b6000600282049050600182168061122057607f821691505b60208210811415611234576112336111d9565b5b50919050565b61124381610d17565b82525050565b600060408201905061125e6000830185610c8d565b61126b602083018461123a565b9392505050565b60006040820190506112876000830185610c8d565b81810360208301526112998184610c28565b90509392505050565b7f4e487b7100000000000000000000000000000000000000000000000000000000600052601160045260246000fd5b60006112dc82610c83565b91507fffffffffffffffffffffffffffffffffffffffffffffffffffffffffffffffff82141561130f5761130e6112a2565b5b600182019050919050565b7f4e487b7100000000000000000000000000000000000000000000000000000000600052603260045260246000fdfea2646970667358221220c4b9e1aa3d1cb51c3258275159bc6883b100883406f5f12dcb433b0ba0516fa264736f6c634300080a0033",
  "immutableReferences": {},
  "source": "// SPDX-License-Identifier: MIT\npragma solidity ^0.8.7;\n\ncontract Storage {\n  string public name = 'Storage';\n\n  uint public fileCount = 0;\n  mapping(uint => File) public files;\n\n  struct File {\n    uint fileId;\n\n    string fileHash;\n    string fileType;\n    string fileName;\n    string fileDescription;\n\n    uint fileSize;\n    uint uploadTime;\n\n    address payable uploader;\n    address[] sharedUsers;\n  }\n\n  event FileUploaded(\n    uint fileId,\n\n    string fileHash,\n    string fileType,\n    string fileName, \n    string fileDescription,\n\n    uint fileSize,\n    uint uploadTime,\n    \n    address payable uploader\n  );\n\n  event FileRenamed(\n    uint fileId,\n    string fileName\n  );\n\n  event FileShared(\n    uint fileId,\n    address sharedWith\n  );\n\n  function uploadFile(string memory _fileHash, uint _fileSize, string memory _fileType, string memory _fileName, string memory _fileDescription) public {\n    require(bytes(_fileHash).length > 0);\n    require(bytes(_fileType).length > 0);\n    require(bytes(_fileDescription).length > 0);\n    require(bytes(_fileName).length > 0);\n    \n    require(_fileSize>0);\n\n    require(msg.sender!=address(0));\n\n    fileCount ++;\n\n    address[] memory sharedUsers = new address[](1);\n    sharedUsers[0] = msg.sender;\n\n    files[fileCount] = File(fileCount, _fileHash, _fileType, _fileName, _fileDescription, _fileSize, block.timestamp, payable(msg.sender), sharedUsers);\n\n    emit FileUploaded(fileCount, _fileHash, _fileType, _fileName, _fileDescription, _fileSize, block.timestamp, payable(msg.sender));\n  }\n\n  function renameFile(uint _fileId, string memory _fileName) public {\n    require(_fileId > 0);\n    require(_fileId <= fileCount);\n    \n    require(bytes(_fileName).length > 0);\n\n    require(payable(msg.sender) == files[_fileId].uploader);\n\n    files[_fileId].fileName = _fileName;\n\n    emit FileRenamed(_fileId, _fileName);\n  }\n\n  function addSharedUser(uint _fileId, address _user) public {\n    require(_fileId>0);\n    require(_fileId <= fileCount);\n\n    require(_user!=address(0));\n\n    require(payable(msg.sender) == files[_fileId].uploader);\n\n    files[_fileId].sharedUsers.push(_user);\n\n    emit FileShared(_fileId, _user);\n  }\n\n  function getSharedUsers(uint fileIndex) public view returns (address[] memory)  {\n      return files[fileIndex].sharedUsers;\n  }\n}\n",
  "sourcePath": "C:\\Users\\Sreekar\\dev\\projects\\bits\\blockchain\\dfss\\src\\contracts\\Storage.sol",
  "compiler": {
    "name": "solc",
    "version": "0.8.10+commit.fc410830.Emscripten.clang"
  },
  "schemaVersion": "3.4.3",
  "updatedAt": "2022-02-04T11:15:56.940Z",
  "networkType": "ethereum",
  "devdoc": {
    "kind": "dev",
    "methods": {},
    "version": 1
  },
  "userdoc": {
    "kind": "user",
    "methods": {},
    "version": 1
  }
}