{
  "contractName": "Storage",
  "abi": [
    {
      "anonymous": false,
      "inputs": [
        {
          "indexed": false,
          "internalType": "uint256",
          "name": "fileId",
          "type": "uint256"
        },
        {
          "indexed": false,
          "internalType": "string",
          "name": "fileHash",
          "type": "string"
        },
        {
          "indexed": false,
          "internalType": "uint256",
          "name": "fileSize",
          "type": "uint256"
        },
        {
          "indexed": false,
          "internalType": "string",
          "name": "fileType",
          "type": "string"
        },
        {
          "indexed": false,
          "internalType": "string",
          "name": "fileName",
          "type": "string"
        },
        {
          "indexed": false,
          "internalType": "string",
          "name": "fileDescription",
          "type": "string"
        },
        {
          "indexed": false,
          "internalType": "uint256",
          "name": "uploadTime",
          "type": "uint256"
        },
        {
          "indexed": false,
          "internalType": "address payable",
          "name": "uploader",
          "type": "address"
        }
      ],
      "name": "FileUploaded",
      "type": "event"
    },
    {
      "inputs": [],
      "name": "fileCount",
      "outputs": [
        {
          "internalType": "uint256",
          "name": "",
          "type": "uint256"
        }
      ],
      "stateMutability": "view",
      "type": "function",
      "constant": true
    },
    {
      "inputs": [
        {
          "internalType": "uint256",
          "name": "",
          "type": "uint256"
        }
      ],
      "name": "files",
      "outputs": [
        {
          "internalType": "uint256",
          "name": "fileId",
          "type": "uint256"
        },
        {
          "internalType": "string",
          "name": "fileHash",
          "type": "string"
        },
        {
          "internalType": "uint256",
          "name": "fileSize",
          "type": "uint256"
        },
        {
          "internalType": "string",
          "name": "fileType",
          "type": "string"
        },
        {
          "internalType": "string",
          "name": "fileName",
          "type": "string"
        },
        {
          "internalType": "string",
          "name": "fileDescription",
          "type": "string"
        },
        {
          "internalType": "uint256",
          "name": "uploadTime",
          "type": "uint256"
        },
        {
          "internalType": "address payable",
          "name": "uploader",
          "type": "address"
        }
      ],
      "stateMutability": "view",
      "type": "function",
      "constant": true
    },
    {
      "inputs": [],
      "name": "name",
      "outputs": [
        {
          "internalType": "string",
          "name": "",
          "type": "string"
        }
      ],
      "stateMutability": "view",
      "type": "function",
      "constant": true
    },
    {
      "inputs": [
        {
          "internalType": "string",
          "name": "_fileHash",
          "type": "string"
        },
        {
          "internalType": "uint256",
          "name": "_fileSize",
          "type": "uint256"
        },
        {
          "internalType": "string",
          "name": "_fileType",
          "type": "string"
        },
        {
          "internalType": "string",
          "name": "_fileName",
          "type": "string"
        },
        {
          "internalType": "string",
          "name": "_fileDescription",
          "type": "string"
        }
      ],
      "name": "uploadFile",
      "outputs": [],
      "stateMutability": "nonpayable",
      "type": "function"
    },
    {
      "inputs": [
        {
          "internalType": "uint256",
          "name": "_fileId",
          "type": "uint256"
        },
        {
          "internalType": "string",
          "name": "_fileName",
          "type": "string"
        }
      ],
      "name": "renameFile",
      "outputs": [],
      "stateMutability": "nonpayable",
      "type": "function"
    },
    {
      "inputs": [
        {
          "internalType": "uint256",
          "name": "_fileId",
          "type": "uint256"
        },
        {
          "internalType": "address",
          "name": "_user",
          "type": "address"
        }
      ],
      "name": "addSharedUser",
      "outputs": [],
      "stateMutability": "nonpayable",
      "type": "function"
    },
    {
      "inputs": [
        {
          "internalType": "uint256",
          "name": "fileIndex",
          "type": "uint256"
        }
      ],
      "name": "getSharedUsers",
      "outputs": [
        {
          "internalType": "address[]",
          "name": "",
          "type": "address[]"
        }
      ],
      "stateMutability": "view",
      "type": "function",
      "constant": true
    }
  ],
  "bytecode": "0x60806040526040518060400160405280600781526020017f53746f726167650000000000000000000000000000000000000000000000000081525060009080519060200190620000519291906200006b565b5060006001553480156200006457600080fd5b5062000180565b82805462000079906200014a565b90600052602060002090601f0160209004810192826200009d5760008555620000e9565b82601f10620000b857805160ff1916838001178555620000e9565b82800160010185558215620000e9579182015b82811115620000e8578251825591602001919060010190620000cb565b5b509050620000f89190620000fc565b5090565b5b8082111562000117576000816000905550600101620000fd565b5090565b7f4e487b7100000000000000000000000000000000000000000000000000000000600052602260045260246000fd5b600060028204905060018216806200016357607f821691505b602082108114156200017a57620001796200011b565b5b50919050565b6111b280620001906000396000f3fe608060405234801561001057600080fd5b506004361061007d5760003560e01c8063b3d199fe1161005b578063b3d199fe146100da578063c32c7c131461010a578063e82d9d3314610126578063f4c714b4146101425761007d565b806306fdde031461008257806343953519146100a0578063939d9d20146100be575b600080fd5b61008a610179565b6040516100979190610afc565b60405180910390f35b6100a8610207565b6040516100b59190610b37565b60405180910390f35b6100d860048036038101906100d39190610bf0565b61020d565b005b6100f460048036038101906100ef9190610c30565b6102f1565b6040516101019190610d1b565b60405180910390f35b610124600480360381019061011f9190610e72565b610395565b005b610140600480360381019061013b9190610ece565b6103c4565b005b61015c60048036038101906101579190610c30565b6106ae565b604051610170989796959493929190610fda565b60405180910390f35b60008054610186906110a3565b80601f01602080910402602001604051908101604052809291908181526020018280546101b2906110a3565b80156101ff5780601f106101d4576101008083540402835291602001916101ff565b820191906000526020600020905b8154815290600101906020018083116101e257829003601f168201915b505050505081565b60015481565b6000821161021a57600080fd5b600073ffffffffffffffffffffffffffffffffffffffff168173ffffffffffffffffffffffffffffffffffffffff16141561025457600080fd5b8160026000848152602001908152602001600020600001541461027657600080fd5b60026000838152602001908152602001600020600801819080600181540180825580915050600190039060005260206000200160009091909190916101000a81548173ffffffffffffffffffffffffffffffffffffffff021916908373ffffffffffffffffffffffffffffffffffffffff1602179055505050565b60606002600083815260200190815260200160002060080180548060200260200160405190810160405280929190818152602001828054801561038957602002820191906000526020600020905b8160009054906101000a900473ffffffffffffffffffffffffffffffffffffffff1673ffffffffffffffffffffffffffffffffffffffff168152602001906001019080831161033f575b50505050509050919050565b806002600084815260200190815260200160002060040190805190602001906103bf929190610936565b505050565b60008551116103d257600080fd5b60008351116103e057600080fd5b60008151116103ee57600080fd5b60008251116103fc57600080fd5b600073ffffffffffffffffffffffffffffffffffffffff163373ffffffffffffffffffffffffffffffffffffffff16141561043657600080fd5b6000841161044357600080fd5b6001600081548092919061045690611104565b91905055506000600167ffffffffffffffff81111561047857610477610d47565b5b6040519080825280602002602001820160405280156104a65781602001602082028036833780820191505090505b50905033816000815181106104be576104bd61114d565b5b602002602001019073ffffffffffffffffffffffffffffffffffffffff16908173ffffffffffffffffffffffffffffffffffffffff168152505060405180610120016040528060015481526020018781526020018681526020018581526020018481526020018381526020014281526020013373ffffffffffffffffffffffffffffffffffffffff1681526020018281525060026000600154815260200190815260200160002060008201518160000155602082015181600101908051906020019061058b929190610936565b506040820151816002015560608201518160030190805190602001906105b2929190610936565b5060808201518160040190805190602001906105cf929190610936565b5060a08201518160050190805190602001906105ec929190610936565b5060c0820151816006015560e08201518160070160006101000a81548173ffffffffffffffffffffffffffffffffffffffff021916908373ffffffffffffffffffffffffffffffffffffffff16021790555061010082015181600801908051906020019061065b9291906109bc565b509050507f6e95bbaa37a5fdec42a312e049dea2fe6160ebe659214d3409b4f91f164c2f526001548787878787423360405161069e989796959493929190610fda565b60405180910390a1505050505050565b60026020528060005260406000206000915090508060000154908060010180546106d7906110a3565b80601f0160208091040260200160405190810160405280929190818152602001828054610703906110a3565b80156107505780601f1061072557610100808354040283529160200191610750565b820191906000526020600020905b81548152906001019060200180831161073357829003601f168201915b50505050509080600201549080600301805461076b906110a3565b80601f0160208091040260200160405190810160405280929190818152602001828054610797906110a3565b80156107e45780601f106107b9576101008083540402835291602001916107e4565b820191906000526020600020905b8154815290600101906020018083116107c757829003601f168201915b5050505050908060040180546107f9906110a3565b80601f0160208091040260200160405190810160405280929190818152602001828054610825906110a3565b80156108725780601f1061084757610100808354040283529160200191610872565b820191906000526020600020905b81548152906001019060200180831161085557829003601f168201915b505050505090806005018054610887906110a3565b80601f01602080910402602001604051908101604052809291908181526020018280546108b3906110a3565b80156109005780601f106108d557610100808354040283529160200191610900565b820191906000526020600020905b8154815290600101906020018083116108e357829003601f168201915b5050505050908060060154908060070160009054906101000a900473ffffffffffffffffffffffffffffffffffffffff16905088565b828054610942906110a3565b90600052602060002090601f01602090048101928261096457600085556109ab565b82601f1061097d57805160ff19168380011785556109ab565b828001600101855582156109ab579182015b828111156109aa57825182559160200191906001019061098f565b5b5090506109b89190610a46565b5090565b828054828255906000526020600020908101928215610a35579160200282015b82811115610a345782518260006101000a81548173ffffffffffffffffffffffffffffffffffffffff021916908373ffffffffffffffffffffffffffffffffffffffff160217905550916020019190600101906109dc565b5b509050610a429190610a46565b5090565b5b80821115610a5f576000816000905550600101610a47565b5090565b600081519050919050565b600082825260208201905092915050565b60005b83811015610a9d578082015181840152602081019050610a82565b83811115610aac576000848401525b50505050565b6000601f19601f8301169050919050565b6000610ace82610a63565b610ad88185610a6e565b9350610ae8818560208601610a7f565b610af181610ab2565b840191505092915050565b60006020820190508181036000830152610b168184610ac3565b905092915050565b6000819050919050565b610b3181610b1e565b82525050565b6000602082019050610b4c6000830184610b28565b92915050565b6000604051905090565b600080fd5b600080fd5b610b6f81610b1e565b8114610b7a57600080fd5b50565b600081359050610b8c81610b66565b92915050565b600073ffffffffffffffffffffffffffffffffffffffff82169050919050565b6000610bbd82610b92565b9050919050565b610bcd81610bb2565b8114610bd857600080fd5b50565b600081359050610bea81610bc4565b92915050565b60008060408385031215610c0757610c06610b5c565b5b6000610c1585828601610b7d565b9250506020610c2685828601610bdb565b9150509250929050565b600060208284031215610c4657610c45610b5c565b5b6000610c5484828501610b7d565b91505092915050565b600081519050919050565b600082825260208201905092915050565b6000819050602082019050919050565b610c9281610bb2565b82525050565b6000610ca48383610c89565b60208301905092915050565b6000602082019050919050565b6000610cc882610c5d565b610cd28185610c68565b9350610cdd83610c79565b8060005b83811015610d0e578151610cf58882610c98565b9750610d0083610cb0565b925050600181019050610ce1565b5085935050505092915050565b60006020820190508181036000830152610d358184610cbd565b905092915050565b600080fd5b600080fd5b7f4e487b7100000000000000000000000000000000000000000000000000000000600052604160045260246000fd5b610d7f82610ab2565b810181811067ffffffffffffffff82111715610d9e57610d9d610d47565b5b80604052505050565b6000610db1610b52565b9050610dbd8282610d76565b919050565b600067ffffffffffffffff821115610ddd57610ddc610d47565b5b610de682610ab2565b9050602081019050919050565b82818337600083830152505050565b6000610e15610e1084610dc2565b610da7565b905082815260208101848484011115610e3157610e30610d42565b5b610e3c848285610df3565b509392505050565b600082601f830112610e5957610e58610d3d565b5b8135610e69848260208601610e02565b91505092915050565b60008060408385031215610e8957610e88610b5c565b5b6000610e9785828601610b7d565b925050602083013567ffffffffffffffff811115610eb857610eb7610b61565b5b610ec485828601610e44565b9150509250929050565b600080600080600060a08688031215610eea57610ee9610b5c565b5b600086013567ffffffffffffffff811115610f0857610f07610b61565b5b610f1488828901610e44565b9550506020610f2588828901610b7d565b945050604086013567ffffffffffffffff811115610f4657610f45610b61565b5b610f5288828901610e44565b935050606086013567ffffffffffffffff811115610f7357610f72610b61565b5b610f7f88828901610e44565b925050608086013567ffffffffffffffff811115610fa057610f9f610b61565b5b610fac88828901610e44565b9150509295509295909350565b6000610fc482610b92565b9050919050565b610fd481610fb9565b82525050565b600061010082019050610ff0600083018b610b28565b8181036020830152611002818a610ac3565b90506110116040830189610b28565b81810360608301526110238188610ac3565b905081810360808301526110378187610ac3565b905081810360a083015261104b8186610ac3565b905061105a60c0830185610b28565b61106760e0830184610fcb565b9998505050505050505050565b7f4e487b7100000000000000000000000000000000000000000000000000000000600052602260045260246000fd5b600060028204905060018216806110bb57607f821691505b602082108114156110cf576110ce611074565b5b50919050565b7f4e487b7100000000000000000000000000000000000000000000000000000000600052601160045260246000fd5b600061110f82610b1e565b91507fffffffffffffffffffffffffffffffffffffffffffffffffffffffffffffffff821415611142576111416110d5565b5b600182019050919050565b7f4e487b7100000000000000000000000000000000000000000000000000000000600052603260045260246000fdfea2646970667358221220038314aeff5fa66b6699e08169aa613ac6ee12fffa442e44a9f08ae08a7fa36264736f6c634300080a0033",
  "immutableReferences": {},
  "source": "// SPDX-License-Identifier: MIT\npragma solidity ^0.8.7;\n\ncontract Storage {\n  string public name = 'Storage';\n  uint public fileCount = 0;\n  mapping(uint => File) public files;\n\n  struct File {\n    uint fileId;\n    string fileHash;\n    uint fileSize;\n    string fileType;\n    string fileName;\n    string fileDescription;\n    uint uploadTime;\n    address payable uploader;\n    address[] sharedUsers;\n  }\n\n  event FileUploaded(\n    uint fileId,\n    string fileHash,\n    uint fileSize,\n    string fileType,\n    string fileName, \n    string fileDescription,\n    uint uploadTime,\n    address payable uploader\n  );\n\n  \n\n  function uploadFile(string memory _fileHash, uint _fileSize, string memory _fileType, string memory _fileName, string memory _fileDescription) public {\n    // Make sure the file hash exists\n    require(bytes(_fileHash).length > 0);\n    // Make sure file type exists\n    require(bytes(_fileType).length > 0);\n    // Make sure file description exists\n    require(bytes(_fileDescription).length > 0);\n    // Make sure file fileName exists\n    require(bytes(_fileName).length > 0);\n    // Make sure uploader address exists\n    require(msg.sender!=address(0));\n    // Make sure file size is more than 0\n    require(_fileSize>0);\n\n    // Increment file id\n    fileCount ++;\n\n    address[] memory sharedUsers = new address[](1);\n    sharedUsers[0] = msg.sender;\n\n    // Add File to the contract\n    files[fileCount] = File(fileCount, _fileHash, _fileSize, _fileType, _fileName, _fileDescription, block.timestamp, payable(msg.sender), sharedUsers);\n    // Trigger an event\n    emit FileUploaded(fileCount, _fileHash, _fileSize, _fileType, _fileName, _fileDescription, block.timestamp, payable(msg.sender));\n  }\n\n  function renameFile(uint _fileId, string memory _fileName) public {\n    files[_fileId].fileName = _fileName;\n  }\n\n  function addSharedUser(uint _fileId, address _user) public {\n    require(_fileId>0);\n    require(_user!=address(0));\n    require(files[_fileId].fileId == _fileId);\n\n    files[_fileId].sharedUsers.push(_user);\n  }\n\n  function getSharedUsers(uint fileIndex) public view returns (address[] memory)\n  {\n      return files[fileIndex].sharedUsers;\n  }\n}\n",
  "sourcePath": "C:\\Users\\Sreekar\\dev\\bits\\blockchain\\dfss\\src\\contracts\\Storage.sol",
  "compiler": {
    "name": "solc",
    "version": "0.8.10+commit.fc410830.Emscripten.clang"
  },
  "schemaVersion": "3.4.3",
  "updatedAt": "2021-12-05T10:01:57.290Z",
  "networkType": "ethereum",
  "devdoc": {
    "kind": "dev",
    "methods": {},
    "version": 1
  },
  "userdoc": {
    "kind": "user",
    "methods": {},
    "version": 1
  }
}