{
  "contractName": "Storage",
  "abi": [
    {
      "anonymous": false,
      "inputs": [
        {
          "indexed": false,
          "internalType": "uint256",
          "name": "fileId",
          "type": "uint256"
        },
        {
          "indexed": false,
          "internalType": "string",
          "name": "fileHash",
          "type": "string"
        },
        {
          "indexed": false,
          "internalType": "uint256",
          "name": "fileSize",
          "type": "uint256"
        },
        {
          "indexed": false,
          "internalType": "string",
          "name": "fileType",
          "type": "string"
        },
        {
          "indexed": false,
          "internalType": "string",
          "name": "fileName",
          "type": "string"
        },
        {
          "indexed": false,
          "internalType": "string",
          "name": "fileDescription",
          "type": "string"
        },
        {
          "indexed": false,
          "internalType": "uint256",
          "name": "uploadTime",
          "type": "uint256"
        },
        {
          "indexed": false,
          "internalType": "address payable",
          "name": "uploader",
          "type": "address"
        }
      ],
      "name": "FileUploaded",
      "type": "event"
    },
    {
      "inputs": [],
      "name": "fileCount",
      "outputs": [
        {
          "internalType": "uint256",
          "name": "",
          "type": "uint256"
        }
      ],
      "stateMutability": "view",
      "type": "function",
      "constant": true
    },
    {
      "inputs": [
        {
          "internalType": "uint256",
          "name": "",
          "type": "uint256"
        }
      ],
      "name": "files",
      "outputs": [
        {
          "internalType": "uint256",
          "name": "fileId",
          "type": "uint256"
        },
        {
          "internalType": "string",
          "name": "fileHash",
          "type": "string"
        },
        {
          "internalType": "uint256",
          "name": "fileSize",
          "type": "uint256"
        },
        {
          "internalType": "string",
          "name": "fileType",
          "type": "string"
        },
        {
          "internalType": "string",
          "name": "fileName",
          "type": "string"
        },
        {
          "internalType": "string",
          "name": "fileDescription",
          "type": "string"
        },
        {
          "internalType": "uint256",
          "name": "uploadTime",
          "type": "uint256"
        },
        {
          "internalType": "address payable",
          "name": "uploader",
          "type": "address"
        }
      ],
      "stateMutability": "view",
      "type": "function",
      "constant": true
    },
    {
      "inputs": [],
      "name": "name",
      "outputs": [
        {
          "internalType": "string",
          "name": "",
          "type": "string"
        }
      ],
      "stateMutability": "view",
      "type": "function",
      "constant": true
    },
    {
      "inputs": [
        {
          "internalType": "string",
          "name": "_fileHash",
          "type": "string"
        },
        {
          "internalType": "uint256",
          "name": "_fileSize",
          "type": "uint256"
        },
        {
          "internalType": "string",
          "name": "_fileType",
          "type": "string"
        },
        {
          "internalType": "string",
          "name": "_fileName",
          "type": "string"
        },
        {
          "internalType": "string",
          "name": "_fileDescription",
          "type": "string"
        }
      ],
      "name": "uploadFile",
      "outputs": [],
      "stateMutability": "nonpayable",
      "type": "function"
    },
    {
      "inputs": [
        {
          "internalType": "uint256",
          "name": "_fileId",
          "type": "uint256"
        },
        {
          "internalType": "address",
          "name": "_fucker",
          "type": "address"
        }
      ],
      "name": "addSharedUser",
      "outputs": [],
      "stateMutability": "nonpayable",
      "type": "function"
    },
    {
      "inputs": [
        {
          "internalType": "uint256",
          "name": "fileIndex",
          "type": "uint256"
        }
      ],
      "name": "getSharedUsers",
      "outputs": [
        {
          "internalType": "address[]",
          "name": "",
          "type": "address[]"
        }
      ],
      "stateMutability": "view",
      "type": "function",
      "constant": true
    }
  ],
  "bytecode": "0x60806040526040518060400160405280600781526020017f53746f726167650000000000000000000000000000000000000000000000000081525060009080519060200190620000519291906200006b565b5060006001553480156200006457600080fd5b5062000180565b82805462000079906200014a565b90600052602060002090601f0160209004810192826200009d5760008555620000e9565b82601f10620000b857805160ff1916838001178555620000e9565b82800160010185558215620000e9579182015b82811115620000e8578251825591602001919060010190620000cb565b5b509050620000f89190620000fc565b5090565b5b8082111562000117576000816000905550600101620000fd565b5090565b7f4e487b7100000000000000000000000000000000000000000000000000000000600052602260045260246000fd5b600060028204905060018216806200016357607f821691505b602082108114156200017a57620001796200011b565b5b50919050565b6110f080620001906000396000f3fe608060405234801561001057600080fd5b50600436106100625760003560e01c806306fdde03146100675780634395351914610085578063939d9d20146100a3578063b3d199fe146100bf578063e82d9d33146100ef578063f4c714b41461010b575b600080fd5b61006f610142565b60405161007c9190610a96565b60405180910390f35b61008d6101d0565b60405161009a9190610ad1565b60405180910390f35b6100bd60048036038101906100b89190610b8a565b6101d6565b005b6100d960048036038101906100d49190610bca565b6102ba565b6040516100e69190610cb5565b60405180910390f35b61010960048036038101906101049190610e0c565b61035e565b005b61012560048036038101906101209190610bca565b610648565b604051610139989796959493929190610f18565b60405180910390f35b6000805461014f90610fe1565b80601f016020809104026020016040519081016040528092919081815260200182805461017b90610fe1565b80156101c85780601f1061019d576101008083540402835291602001916101c8565b820191906000526020600020905b8154815290600101906020018083116101ab57829003601f168201915b505050505081565b60015481565b600082116101e357600080fd5b600073ffffffffffffffffffffffffffffffffffffffff168173ffffffffffffffffffffffffffffffffffffffff16141561021d57600080fd5b8160026000848152602001908152602001600020600001541461023f57600080fd5b60026000838152602001908152602001600020600801819080600181540180825580915050600190039060005260206000200160009091909190916101000a81548173ffffffffffffffffffffffffffffffffffffffff021916908373ffffffffffffffffffffffffffffffffffffffff1602179055505050565b60606002600083815260200190815260200160002060080180548060200260200160405190810160405280929190818152602001828054801561035257602002820191906000526020600020905b8160009054906101000a900473ffffffffffffffffffffffffffffffffffffffff1673ffffffffffffffffffffffffffffffffffffffff1681526020019060010190808311610308575b50505050509050919050565b600085511161036c57600080fd5b600083511161037a57600080fd5b600081511161038857600080fd5b600082511161039657600080fd5b600073ffffffffffffffffffffffffffffffffffffffff163373ffffffffffffffffffffffffffffffffffffffff1614156103d057600080fd5b600084116103dd57600080fd5b600160008154809291906103f090611042565b91905055506000600167ffffffffffffffff81111561041257610411610ce1565b5b6040519080825280602002602001820160405280156104405781602001602082028036833780820191505090505b50905033816000815181106104585761045761108b565b5b602002602001019073ffffffffffffffffffffffffffffffffffffffff16908173ffffffffffffffffffffffffffffffffffffffff168152505060405180610120016040528060015481526020018781526020018681526020018581526020018481526020018381526020014281526020013373ffffffffffffffffffffffffffffffffffffffff168152602001828152506002600060015481526020019081526020016000206000820151816000015560208201518160010190805190602001906105259291906108d0565b5060408201518160020155606082015181600301908051906020019061054c9291906108d0565b5060808201518160040190805190602001906105699291906108d0565b5060a08201518160050190805190602001906105869291906108d0565b5060c0820151816006015560e08201518160070160006101000a81548173ffffffffffffffffffffffffffffffffffffffff021916908373ffffffffffffffffffffffffffffffffffffffff1602179055506101008201518160080190805190602001906105f5929190610956565b509050507f6e95bbaa37a5fdec42a312e049dea2fe6160ebe659214d3409b4f91f164c2f5260015487878787874233604051610638989796959493929190610f18565b60405180910390a1505050505050565b600260205280600052604060002060009150905080600001549080600101805461067190610fe1565b80601f016020809104026020016040519081016040528092919081815260200182805461069d90610fe1565b80156106ea5780601f106106bf576101008083540402835291602001916106ea565b820191906000526020600020905b8154815290600101906020018083116106cd57829003601f168201915b50505050509080600201549080600301805461070590610fe1565b80601f016020809104026020016040519081016040528092919081815260200182805461073190610fe1565b801561077e5780601f106107535761010080835404028352916020019161077e565b820191906000526020600020905b81548152906001019060200180831161076157829003601f168201915b50505050509080600401805461079390610fe1565b80601f01602080910402602001604051908101604052809291908181526020018280546107bf90610fe1565b801561080c5780601f106107e15761010080835404028352916020019161080c565b820191906000526020600020905b8154815290600101906020018083116107ef57829003601f168201915b50505050509080600501805461082190610fe1565b80601f016020809104026020016040519081016040528092919081815260200182805461084d90610fe1565b801561089a5780601f1061086f5761010080835404028352916020019161089a565b820191906000526020600020905b81548152906001019060200180831161087d57829003601f168201915b5050505050908060060154908060070160009054906101000a900473ffffffffffffffffffffffffffffffffffffffff16905088565b8280546108dc90610fe1565b90600052602060002090601f0160209004810192826108fe5760008555610945565b82601f1061091757805160ff1916838001178555610945565b82800160010185558215610945579182015b82811115610944578251825591602001919060010190610929565b5b50905061095291906109e0565b5090565b8280548282559060005260206000209081019282156109cf579160200282015b828111156109ce5782518260006101000a81548173ffffffffffffffffffffffffffffffffffffffff021916908373ffffffffffffffffffffffffffffffffffffffff16021790555091602001919060010190610976565b5b5090506109dc91906109e0565b5090565b5b808211156109f95760008160009055506001016109e1565b5090565b600081519050919050565b600082825260208201905092915050565b60005b83811015610a37578082015181840152602081019050610a1c565b83811115610a46576000848401525b50505050565b6000601f19601f8301169050919050565b6000610a68826109fd565b610a728185610a08565b9350610a82818560208601610a19565b610a8b81610a4c565b840191505092915050565b60006020820190508181036000830152610ab08184610a5d565b905092915050565b6000819050919050565b610acb81610ab8565b82525050565b6000602082019050610ae66000830184610ac2565b92915050565b6000604051905090565b600080fd5b600080fd5b610b0981610ab8565b8114610b1457600080fd5b50565b600081359050610b2681610b00565b92915050565b600073ffffffffffffffffffffffffffffffffffffffff82169050919050565b6000610b5782610b2c565b9050919050565b610b6781610b4c565b8114610b7257600080fd5b50565b600081359050610b8481610b5e565b92915050565b60008060408385031215610ba157610ba0610af6565b5b6000610baf85828601610b17565b9250506020610bc085828601610b75565b9150509250929050565b600060208284031215610be057610bdf610af6565b5b6000610bee84828501610b17565b91505092915050565b600081519050919050565b600082825260208201905092915050565b6000819050602082019050919050565b610c2c81610b4c565b82525050565b6000610c3e8383610c23565b60208301905092915050565b6000602082019050919050565b6000610c6282610bf7565b610c6c8185610c02565b9350610c7783610c13565b8060005b83811015610ca8578151610c8f8882610c32565b9750610c9a83610c4a565b925050600181019050610c7b565b5085935050505092915050565b60006020820190508181036000830152610ccf8184610c57565b905092915050565b600080fd5b600080fd5b7f4e487b7100000000000000000000000000000000000000000000000000000000600052604160045260246000fd5b610d1982610a4c565b810181811067ffffffffffffffff82111715610d3857610d37610ce1565b5b80604052505050565b6000610d4b610aec565b9050610d578282610d10565b919050565b600067ffffffffffffffff821115610d7757610d76610ce1565b5b610d8082610a4c565b9050602081019050919050565b82818337600083830152505050565b6000610daf610daa84610d5c565b610d41565b905082815260208101848484011115610dcb57610dca610cdc565b5b610dd6848285610d8d565b509392505050565b600082601f830112610df357610df2610cd7565b5b8135610e03848260208601610d9c565b91505092915050565b600080600080600060a08688031215610e2857610e27610af6565b5b600086013567ffffffffffffffff811115610e4657610e45610afb565b5b610e5288828901610dde565b9550506020610e6388828901610b17565b945050604086013567ffffffffffffffff811115610e8457610e83610afb565b5b610e9088828901610dde565b935050606086013567ffffffffffffffff811115610eb157610eb0610afb565b5b610ebd88828901610dde565b925050608086013567ffffffffffffffff811115610ede57610edd610afb565b5b610eea88828901610dde565b9150509295509295909350565b6000610f0282610b2c565b9050919050565b610f1281610ef7565b82525050565b600061010082019050610f2e600083018b610ac2565b8181036020830152610f40818a610a5d565b9050610f4f6040830189610ac2565b8181036060830152610f618188610a5d565b90508181036080830152610f758187610a5d565b905081810360a0830152610f898186610a5d565b9050610f9860c0830185610ac2565b610fa560e0830184610f09565b9998505050505050505050565b7f4e487b7100000000000000000000000000000000000000000000000000000000600052602260045260246000fd5b60006002820490506001821680610ff957607f821691505b6020821081141561100d5761100c610fb2565b5b50919050565b7f4e487b7100000000000000000000000000000000000000000000000000000000600052601160045260246000fd5b600061104d82610ab8565b91507fffffffffffffffffffffffffffffffffffffffffffffffffffffffffffffffff8214156110805761107f611013565b5b600182019050919050565b7f4e487b7100000000000000000000000000000000000000000000000000000000600052603260045260246000fdfea2646970667358221220271090d49593f0fcd158e1373b7303282fb24fa4f759f68d68120cf8f85b463764736f6c634300080a0033",
  "immutableReferences": {},
  "source": "// SPDX-License-Identifier: MIT\npragma solidity ^0.8.7;\n\ncontract Storage {\n  string public name = 'Storage';\n  uint public fileCount = 0;\n  mapping(uint => File) public files;\n\n  struct File {\n    uint fileId;\n    string fileHash;\n    uint fileSize;\n    string fileType;\n    string fileName;\n    string fileDescription;\n    uint uploadTime;\n    address payable uploader;\n    address[] sharedUsers;\n  }\n\n  event FileUploaded(\n    uint fileId,\n    string fileHash,\n    uint fileSize,\n    string fileType,\n    string fileName, \n    string fileDescription,\n    uint uploadTime,\n    address payable uploader\n  );\n\n  \n\n  function uploadFile(string memory _fileHash, uint _fileSize, string memory _fileType, string memory _fileName, string memory _fileDescription) public {\n    // Make sure the file hash exists\n    require(bytes(_fileHash).length > 0);\n    // Make sure file type exists\n    require(bytes(_fileType).length > 0);\n    // Make sure file description exists\n    require(bytes(_fileDescription).length > 0);\n    // Make sure file fileName exists\n    require(bytes(_fileName).length > 0);\n    // Make sure uploader address exists\n    require(msg.sender!=address(0));\n    // Make sure file size is more than 0\n    require(_fileSize>0);\n\n    // Increment file id\n    fileCount ++;\n\n    address[] memory sharedUsers = new address[](1);\n    sharedUsers[0] = msg.sender;\n\n    // Add File to the contract\n    files[fileCount] = File(fileCount, _fileHash, _fileSize, _fileType, _fileName, _fileDescription, block.timestamp, payable(msg.sender), sharedUsers);\n    // Trigger an event\n    emit FileUploaded(fileCount, _fileHash, _fileSize, _fileType, _fileName, _fileDescription, block.timestamp, payable(msg.sender));\n  }\n\n  function addSharedUser(uint _fileId, address _fucker) public {\n    require(_fileId>0);\n    require(_fucker!=address(0));\n    require(files[_fileId].fileId == _fileId);\n\n    files[_fileId].sharedUsers.push(_fucker);\n  }\n\n  function getSharedUsers(uint fileIndex) public view returns (address[] memory)\n  {\n      return files[fileIndex].sharedUsers;\n  }\n}\n",
  "sourcePath": "C:\\Users\\Sreekar\\dev\\bits\\blockchain\\dfss\\src\\contracts\\Storage.sol",
  "compiler": {
    "name": "solc",
    "version": "0.8.10+commit.fc410830.Emscripten.clang"
  },
  "schemaVersion": "3.4.3",
  "updatedAt": "2021-12-04T05:50:38.837Z",
  "networkType": "ethereum",
  "devdoc": {
    "kind": "dev",
    "methods": {},
    "version": 1
  },
  "userdoc": {
    "kind": "user",
    "methods": {},
    "version": 1
  }
}